:1000000002308A00BA2A00000A108A100A118207F8
:1000100028340C3401340634C827D3234526C4249D
:10002000CE245A008A29E939F4326D10C330EC34F9
:10003000F334F93772008C126417D4306D008C2AB7
:100040004329452AA020CC244E2249000A2AC5294A
:10005000C525CB2A5226452900018C126417CF33BF
:10006000F232EE3169008C2A4329452AA020CC24A3
:100070004E2249000A2AC529C525CB2A52264529E0
:1000800000003B3084008313000803195528013019
:10009000F800F701F70B4A28F80B49284A30F70017
:1000A000F70B50285328800B47280800420EF039E0
:1000B000F7000F300605770486000000061460285C
:1000C000061008000608F700060E0F39F8000800B1
:1000D0008316061086100611831286100F308316C1
:1000E0000605F0388600831206150000061400008D
:1000F00062207808C200061000000614000062208A
:100100007808C10006100F3083160605860083129A
:10011000420EF700F030F70577084104F800780840
:10012000C100C11B6E283F1C86103F1886140000BA
:10013000061100000610400EC1000F30C105410835
:10014000C200562040080F39C100C20056200800E6
:100150000F308316060586000610861006118312DE
:100160008610061106100F30BB0041200130B4008C
:100170003408033C031CC4280330C2005620053059
:10018000BB004120B40AB8280230C2005620053016
:10019000BB004120B4013408033C031CD8283408B8
:1001A0000420B500BF013508C0006820B40ACB2880
:1001B0008A110A120E2B3C0BDE28E1284030BD00CC
:1001C000E228BD0101303B02BD073D088038BE007A
:1001D000BF013E08C000682008003A08073A03192A
:1001E000FB280B3A03190029063A03190829023A99
:1001F00003190E2913290130BB00BC00DB2018298C
:10020000BF010130C00068200230BB004120182926
:100210000130BB000230BC00DB201829BF011030C8
:10022000C000682018290130BF003A08C0006820CB
:1002300008000B08B4008B13831603178C170C14DB
:1002400000000000801F2929831203138B178316D7
:10025000031783120C087F39031973290313B400A1
:1002600003170D080313B50003170F080313B60097
:100270003408BA00ED20350803178D000313360843
:1002800003178F0003130B08B7008B138316031794
:100290008C170C1400000000801F532983120313D5
:1002A0008B178316031783120C0D0E0D7F3903195C
:1002B00073290313B40003170D080313B5000317C4
:1002C0000F080313B6003408BA00ED2035080317F1
:1002D0008D000313360803178F008D0A03198F0A48
:1002E0000313192903170313080083160514831237
:1002F000051C822983160514831205187A29A20A7F
:100300000130AC00831685148312851C8F29831657
:100310008514831285188729A30A0130AC0083163F
:1003200005158312051D9C298316051583120519D1
:100330009429A40A0130AC00831685158312851D0B
:10034000A9298316851583128519A129A50A0130CB
:10035000AC00831605168312051EB62983160516F2
:100360008312051AAE29A60A0130AC008316851641
:100370008312851EC329831685168312851ABB290D
:10038000A70A0130AC000800F701F8013508031096
:100390003618F707F70CF80CB618F707F70CF80C37
:1003A0003619F707F70CF80CB619F707F70CF80C25
:1003B000361AF707F70CF80CB61AF707F70CF80C13
:1003C000361BF707F70CF80CB61BF707F70CF80C01
:1003D00008003B08F8013A020318F1293A08F7002F
:1003E000FD29F7010830BC00BA0DF70D3B08770274
:1003F0000318F700F80DBC0BF42908002030351E57
:100400003030B6003408F700B41F0E2AF709F70A97
:100410007708B4002D30B600B51735143408BA008B
:100420006430BB00E9217708B40030307807B700AA
:100430003408BA000A30BB00E92130307707B90030
:1004400030307807B8003608F7003030370203192B
:100450002D2AB514B51B3515412A3608B7002030B2
:10046000B600303038020319392A3514B51BB514DB
:10047000412A031D3514031D412A3708B8002030D6
:10048000B7003519482AB5184B2A35184E2A512A73
:100490003608BA00ED203708BA00ED203808BA0057
:1004A000ED203908BA00ED2008000B08B5008B13C9
:1004B000831603178C170C1400000000801F652A98
:1004C000831203138B178316031703189A2A8312B8
:1004D0000C087F390313B50003170D080313B6008A
:1004E00003170F080313B7003508BA00ED203608CC
:1004F00003178D000313370803178F0003130B082E
:10050000B8008B13831603178C170C14000000001F
:10051000801F8F2A831203138B17831603178312EE
:100520000313B40B942A972A831603179A2AB92A1D
:100530008316031783120C0D0E0D7F390313B500BC
:1005400003170D080313B60003170F080313B700B2
:100550003508BA00ED20360803178D00031337085D
:1005600003178F008D0A03198F0A03100313B40BAE
:10057000552A080003081F398300A001A101A20128
:10058000A301A401A501A601A701A801A901AA012F
:10059000AB01AC01AD01AE01AF01B001B101B201DF
:1005A000FF30B30083161F149F141F159F110730CF
:1005B0009C008313091283129412B312330883161A
:1005C0008700831233163308831687008312B31112
:1005D000330883168700013083129400003083169D
:1005E000940083129001F80092000030831692006C
:1005F0001F149F141F159F1183121F10F0309705B1
:100600009D05B31133088316870083128711B31237
:1006100033088316870083128712A8280C3003172B
:100620008D0000308F0003131921123003178D0045
:1006300000308F0003131921831608148312081C3D
:100640003F2B8316081483120818212B331033080C
:100650008316870083120714B310330883168700AC
:10066000831287100130A000AB0AAA01A801A901DA
:10067000A201A301A401A501A601A701AC00200BC2
:10068000E62C75212208B5006430B600C421780834
:10069000B4002308B5003230B600C4217808B4078E
:1006A0002408B5001930B600C4217808B40725081D
:1006B000B5000A30B600C4217808B4072608B50092
:1006C0000530B600C421780834072707AA002A0895
:1006D000BA006430BB00E9217808A8002A08BA00F3
:1006E0006430BB00E9217708A900AC080319AA2BE4
:1006F0000C30BA00ED202B08B4001830B500FE21F4
:100700001C3003178D0000308F00031404300313D6
:10071000B40055220A30BA00ED202808B400183081
:10072000B500FE215430BA00ED204C30BA00ED2067
:100730002030BA00ED202908B4001830B500FE21A1
:100740004B30BA00ED205230BA00ED205330BA00E1
:10075000ED20AC012A08AE3C0318E62C3310330818
:1007600083168700831207101F3003178D00003097
:100770008F0003131921263003178D0000308F00DE
:1007800003131921A001AF302A02AD002D08BA00D1
:100790003230BB00E9217808AE002E08B5003230B7
:1007A000B600C42178082D02B500BA001930BB008C
:1007B000E9217808AF002E08B5003230B600C42118
:1007C00078082D02B4002F08B5001930B600C421F6
:1007D00078083402B500BA000A30BB00E921780875
:1007E000B0002E08B5003230B600C42178082D02C2
:1007F000B4002F08B5001930B600C4217808B4023F
:100800003008B5000A30B600C42178083402B500BB
:10081000BA000530BB00E9217808B1002E08B50008
:100820003230B600C42178082D02B4002F08B5007C
:100830001930B600C4217808B4023008B5000A3077
:10084000B600C4217808B4023108B5000530B600FE
:10085000C42178083402B200AE080319562CAE0841
:100860000319562C3311330883168700831207159A
:100870000830B400FA30BB004120B40B3A2C3311DD
:100880003308831687008312071183160811831219
:1008900008150A30B400DC30BB004120B40B4B2CEF
:1008A0008316081183120811AE032F2CAF08031909
:1008B000802CAF080319802CB311330883168700EE
:1008C000831287150830B400FA30BB004120B40B06
:1008D000642CB311330883168700831287118316A3
:1008E0008811831288150A30B400DC30BB00412027
:1008F000B40B752C8316881183128811AF03592C01
:10090000B0080319A22CB0080319A22C3312330823
:100910008316870083120716C830BB0041203312AC
:100920003308831687008312071283160812831276
:100930000816DC30BB00412083160812831208120F
:10094000B003832CB1080319C42CB1080319C42CBB
:10095000B31233088316870083128716C830BB0092
:100960004120B3123308831687008312871283163F
:10097000881283128816DC30BB004120831688124F
:1009800083128812B103A52CB2080319E62CB20811
:100990000319E62CB31233088316870083128716D7
:1009A000C830BB004120B31233088316870083127E
:1009B00087128316881283128816DC30BB00412010
:1009C0008316881283128812B203C72C83168814E8
:1009D0008312881C092D8316881483128818EB2C27
:1009E000B31033088316870083128714331033083B
:1009F00083168700831207100130A100AB0AAA01F9
:100A0000A801A901A201A301A401A501A601A701B2
:100A1000AC00210BB02E75212208B5006430B60061
:100A2000C4217808B4002308B5003230B600C421D0
:100A30007808B4072408B5001930B600C421780836
:100A4000B4072508B5000A30B600C4217808B407F9
:100A50002608B5000530B600C421780834072707FA
:100A6000AA002A08BA006430BB00E9217808A8006F
:100A70002A08BA006430BB00E9217708A900AC0855
:100A80000319742D0C30BA00ED202B08B400183077
:100A9000B500FE212E3003178D0000308F000314A7
:100AA00008300313B40055220A30BA00ED2028089C
:100AB000B4001830B500FE215430BA00ED204C309F
:100AC000BA00ED202030BA00ED202908B40018301B
:100AD000B500FE214B30BA00ED205230BA00ED20B7
:100AE0005330BA00ED20AC012A08953C0318B02E13
:100AF000B31033088316870083128710333003172F
:100B00008D0000308F00031319213A3003178D0038
:100B100000308F0003131921A10196302A02AD0085
:100B20002D08BA003230BB00E9217808AE002E084B
:100B3000B5003230B600C42178082D02B500BA00E5
:100B40001930BB00E9217808AF002E08B50032301B
:100B5000B600C42178082D02B4002F08B500193062
:100B6000B600C42178083402B500BA000A30BB00D0
:100B7000E9217808B0002E08B5003230B600C42153
:100B800078082D02B4002F08B5001930B600C42132
:100B90007808B4023008B5000A30B600C4217808DD
:100BA0003402B500BA000530BB00E9217808B10075
:100BB0002E08B5003230B600C42178082D02B400EA
:100BC0002F08B5001930B600C4217808B4023008E7
:100BD000B5000A30B600C4217808B4023108B50067
:100BE0000530B600C42178083402B200AE080319FB
:100BF000202EAE080319202E3311330883168700E8
:100C0000831207150830B400FA30BB004120B40B42
:100C1000042E3311330883168700831207118316BD
:100C20000811831208150A30B400DC30BB004120E3
:100C3000B40B152E8316081183120811AE03F92D7B
:100C4000AF0803194A2EAF0803194A2EB31133080F
:100C500083168700831287150830B400FA30BB0072
:100C60004120B40B2E2EB311330883168700831254
:100C7000871183168811831288150A30B400DC307E
:100C8000BB004120B40B3F2E8316881183128811BC
:100C9000AF03232EB00803196C2EB00803196C2E75
:100CA000331233088316870083120716C830BB003F
:100CB00041203312330883168700831207128316EC
:100CC000081283120816DC30BB004120831608127C
:100CD00083120812B0034D2EB10803198E2EB108ED
:100CE00003198E2EB31233088316870083128716DA
:100CF000C830BB004120B31233088316870083122B
:100D000087128316881283128816DC30BB004120BC
:100D10008316881283128812B1036F2EB20803194A
:100D2000B02EB2080319B02EB31233088316870011
:100D300083128716C830BB004120B31233088316D4
:100D40008700831287128316881283128816DC307C
:100D5000BB0041208316881283128812B203912EA1
:040D60001C2B6300E5
:02400E00393F38
:00000001FF
;PIC16F877A
;CRC=4CB6  CREATED="21-Mar-16 16:56"
